:020000040800F2
:1000000008100020010100087516000825120008DC
:1000100071160008A50C0008C3310008000000009C
:10002000000000000000000000000000652500083E
:10003000DD0E000800000000F1200008252900085E
:100040001701000817010008170100081701000830
:100050001701000817010008170100081701000820
:100060001701000817010008170100081701000810
:100070001701000817010008170100081701000800
:1000800017010008170100081701000817010008F0
:1000900017010008170100081701000817010008E0
:1000A00017010008170100081701000817010008D0
:1000B00089290008052A0008992A00081701000864
:1000C00017010008170100081701000817010008B0
:1000D0001701000817010008DD2D0008C52E0008D3
:1000E000170100081701000817010008DFF80CD0FD
:1000F00000F0C4FB00480047113900080810002038
:1001000005480047FEE7FEE7FEE7FEE7FEE7FEE7FD
:10011000FEE7FEE7FEE7FEE7ED00000840EA010328
:100120009B0703D009E008C9121F08C0042AFAD2AD
:1001300003E011F8013B00F8013B521EF9D2704771
:10014000F0B480EA0102D40F4200B2EB410F02D2B8
:100150000246084611464A0042D0C30DDDB2C1F343
:10016000C752AD1A202D35DAC1F3160141F4000251
:1001700004B15242C5F1200602FA06F12A411044A8
:10018000B3EBD05F23D0C4B1012DA0EBC35009DC89
:10019000F0BC4FF0004202EAC352DBB200F50000AF
:1001A00000F0F9B9400000F1807000EBC350A0F1FD
:1001B000807040EAD170490009E0490841EAC07105
:1001C000A0EBC35000F50000400800EBC350F0BCAA
:1001D00000F0D8B96142012202EB4101001BF6E7B1
:1001E000F0BC704781F00041AAE780F00040A7E72B
:1001F00080EA010210B502F00043400022D04A001C
:100200001FD0010E01EB1261C0F35600C2F356027B
:1002100040F4000042F40002A0FB022000047F39F9
:10022000140400D0401C50EA124001D44000491E82
:10023000C2B20C0604EBD010401C4008802A02D049
:1002400003E0002010BD20F00100002900DA0020AA
:10025000184310BD30B480EA010202F0004530F0CE
:10026000004221F0004013D090B1C30DD40DC2F371
:100270001601C0F31600E41A41F4000140F4000234
:100280007D34914201D3641C00E04900002C02DA65
:1002900030BC002070474FF400000023914201D38E
:1002A000891A034340084FEA4101F7D151B1914205
:1002B00002D14FF0004105E002D24FF0010101E010
:1002C0006FF0010103EBC450284430BC00F05AB970
:1002D0002DE9FE4F81EA030404F0004421F00041BF
:1002E00000944FF0000B23F0004350EA01045ED06D
:1002F00052EA03045BD0C3F30A54C1F30A552C44F9
:10030000A4F2F3340194A0FB0254C1F3130141F4AD
:100310008011C3F3130343F4801301FB024400FB79
:10032000034E840A970A44EA815447EA8357A4FBA0
:10033000076802958D0A05FB07854FEA932C04FB9D
:100340000C542705029D4FEA065847EA1637B5EBCD
:1003500008056EEB070C870E920E47EA811742EAFA
:100360008312A7FB0201B6EB0B0164EB00042B0D1B
:1003700043EA0C335E1844EB1C50DA465146E7FB67
:100380000201C5F313044FEA0B3343EA14534FEA57
:100390000432019C43EA0603A4F10C040294009C7D
:1003A000CDE900B400F034F903B0BDE8F08F0020CF
:1003B0000146F9E72DE9F04D81EA030404F0004B12
:1003C00021F0004514464FF0000A23F0004150EAA6
:1003D000050220D054EA01021DD0C5F30A57024697
:1003E000C5F31303C1F31300C1F30A5640F480159B
:1003F00043F48013A7EB0608101BD64608F2FD381D
:1004000073EB050002D308F1010801E092185B418B
:10041000B8F1000F03DA00200146BDE8F08D00209E
:100420004FF48011064684460EE0171B73EB050758
:1004300005D3121B63EB050306434CEA010C490884
:100440004FEA300092185B4150EA0107EDD152EAC1
:10045000030012D082EA040083EA0501084305D0B4
:10046000101BAB4106D20122002306E000224FF010
:10047000004302E06FF0010253101AEB06004CEB50
:10048000085110EB0A0041EB0B01BDE8F04D00F004
:10049000B0B896230022114600F07DB820F000404D
:1004A000C10DC0F3160040F400007F2901DA0020DE
:1004B0007047962903DCC1F19601C8407047963910
:1004C0008840704700F0004230F000400AD0C10D73
:1004D00001F56071C0F3160042EA0151C2084007FD
:1004E0001143704700200146704701F0004330B4CB
:1004F00021F0004150EA010206D00A0DA2F5607217
:10050000C1F31301002A02DC30BC00207047440F05
:1005100044EAC104C100E01830BC00EBC25000F056
:1005200031B82DE9F05F0546002092469B4688468B
:100530000646814640241BE028464146474622465F
:1005400000F0BDF953465A46C01A914110D31146E6
:100550001846224600F0A4F92D1A67EB01084F4611
:1005600022460120002100F09BF917EB00094E41C3
:10057000201EA4F10104DFDC484631462A464346EA
:10058000BDE8F09F0029A8BF7047401C490008BF84
:1005900020F00100704710B4B0FA80FC00FA0CF0B3
:1005A00050EA010404BF10BC704749B1CCF12004EB
:1005B00021FA04F411FA0CF118BF01212143084378
:1005C000A3EB0C01CB1D4FEA00614FEA102042BFA4
:1005D000002010BC704700EBC35010440029A4BF9A
:1005E00010BC7047401C490008BF20F0010010BC3F
:1005F000704710B5141E73F1000408DA401C41F175
:10060000000192185B411A4301D120F0010010BD96
:100610002DE9F04D92469B4611B1B1FA81F202E00C
:10062000B0FA80F22032904600F03AF904460F46C4
:1006300040EA0A0041EA0B0153465A46084313D0E8
:10064000114653EA010019D0C8F14002504600F0AB
:1006500036F905460E4650465946424600F020F906
:10066000084305D0012004E020463946BDE8F08D5E
:100670000020054346EAE0762C4337430A98630599
:10068000E40AA0EB08000022FD0A44EA47540A30BD
:1006900002D500200146E9E7010510196941DDE9AD
:1006A000084500196941BDE8F04DA2E72DE9FE4F6C
:1006B000804681EA0300C00F0C46009021F0004103
:1006C00023F00045B8EB0200A94105D2404621467F
:1006D00090461C460B46024623F00040104347D08C
:1006E000270DC7F30A00C3F30A510290401A019084
:1006F00040286BDAC3F3130040F4801B0098924645
:1007000020B10023D2EB030A63EB0B0B019859468F
:10071000C0F14002504600F0C3F806460D46504670
:100720005946019A00F0DBF810EB08006141002403
:1007300087EA115284EAE7731A4340D0009A62B301
:10074000019A012A4FEA075215DC001B61EB0201F6
:100750004FF0004202EA0752CDE90042001C41F589
:10076000801132462B46FFF753FF03B0BDE8F08FF0
:1007700040462146F9E7001B61EB0201001C41F5F0
:10078000801300185B412018A2F5001747EB030106
:1007900040EAD570B6196D4111E06D084FEA360692
:1007A00045EAC0754FEA0752001B61EB0201001CCD
:1007B00041F5801149084FEA300000195141324695
:1007C0002B4603B0BDE8F04FFFF713BF009801229E
:1007D00040000023D0EB020263EBE0730098214657
:1007E0004FEAE074B8EB000061EB0401E9E783F045
:1007F00000435BE781F0004158E770B521F000430A
:1008000003430CD0C1F30A550024D5EB040564EB77
:100810000403D617AD1AB34102DB0020014670BDB8
:10082000201841EB025170BD0EB5C10F80EAE07097
:100830000844CA07002140F233438DE80E000A46FF
:100840000B46FFF7E5FE03B000BD000030B5041E07
:1008500071F1000404DB4FF00044404264EB0101FD
:10086000141E73F1000405DB1C464FF00043524296
:1008700063EB0403994208BF904230BD064C074D1C
:1008800006E0E06840F0010394E807009847103460
:10089000AC42F6D3FFF72EFCF86B0008186C00088A
:1008A000202A04DB203A00FA02F100207047914030
:1008B000C2F1200320FA03F3194390407047202A25
:1008C00004DB203A21FA02F00021704721FA02F3FA
:1008D000D040C2F120029140084319467047202AB7
:1008E00006DBCB17203A41FA02F043EAE07306E058
:1008F00041FA02F3D040C2F1200291400843194668
:1009000070472DE9F04D00231A461B1A8A4103DB7C
:1009100000200146BDE8F08DC1F30A52C1F3130176
:1009200041F480154FF0000BD10702D100186D4142
:10093000521E0027044640F2FF11384601EB620ABE
:100940003E468046024600204FF48011FFF7B7FF75
:10095000C2197141BB1846EB0100B4EB030C75EBF7
:10096000000C04D3E41A65EB000517460E46241963
:1009700008F101006D4180463428E3DDF91946EBAA
:100980000600091BA84103D24FF0FF32134601E0D5
:10099000002213461BEB070046EB0A51BDE8F04D61
:1009A000FFF727BE00B591B00121480201F0DEFB40
:1009B0000121042001F0DAFB0121084601F0A6FB29
:1009C0004FF4004001F096FB00208DF84300012019
:1009D000ADF8400003208DF8420010A92D4800F02A
:1009E00068FB0523012200212B4800F0ADF8002010
:1009F0000B900E904FF460200D9001208DF8310087
:100A00008DF830008DF83C000BA9234800F074F8F5
:100A100021484C30009080150690002004901F481B
:100A200001904FF480600790802005900020029094
:100A3000012003902020089000200A904FF480505D
:100A400009906946164800F02BFA0121144800F07D
:100A50001BFA0121104800F030F801210E4800F087
:100A600021F80D4800F0CCF800BF0B4800F03AF830
:100A70000128FAD0084800F0D3F800BF064800F07B
:100A800027F80128FAD00121034800F0BEF811B080
:100A900000BD000000080140002401404800002083
:100AA0000800024021B1826842F00102826003E046
:100AB000826822F001028260704721B1826842F4AC
:100AC0008072826003E0826822F4807282607047E4
:100AD000014600208A6802F004020AB1012000E009
:100AE00000207047014600208A6802F008020AB11F
:100AF000012000E00020704730B5024600200023AE
:100B000050680F4C20400D790C6844EA05242043BE
:100B1000506090680B4C2040D1E902542C434D7931
:100B200044EA450420439060D06A20F470000C7CB5
:100B3000641EE4B2234340EA0350D06230BD00009B
:100B4000FFFEF0FFFDF7F1FFF0B504460D46002073
:100B50000021092D11DDE068A5F10A0606EB460724
:100B6000072606FA07F18843A5F10A0606EB4606B2
:100B700003FA06F10843E0600CE0206905EB450745
:100B8000072606FA07F1884305EB450603FA06F146
:100B900008432061072A0FDA606B561E06EB8607B2
:100BA0001F2606FA07F18843561E06EB860605FA4D
:100BB00006F10843606322E00D2A0FDA206BD61F8E
:100BC00006EB86071F2606FA07F18843D61F06EBB9
:100BD000860605FA06F10843206310E0E06AA2F1F8
:100BE0000D0606EB86071F2606FA07F18843A2F1D9
:100BF0000D0606EB860605FA06F10843E062F0BD35
:100C0000816841F008018160704721B1826842F437
:100C1000A002826003E0826822F4A0028260704732
:100C2000816841F0040181607047000010B51948E7
:100C300040891949C988884203DD01201749887213
:100C400002E00020154988721248008A58B91148FC
:100C5000C08811498989884205DC0E4840890E49BF
:100C6000C988884203DD01200C49487002E0002059
:100C70000A4948700848C07B01280AD10548408AC3
:100C8000012806D1064802F051F94FF47A7002F0BB
:100C9000AFFD10BDF0040020040500201405002065
:100CA0000A00002000BFFEE710B50D48407A20B1D1
:100CB00002210C4800F093FA03E00221094800F0F9
:100CC0008CFA0748807A08490978884206D00020C3
:100CD000064908700248807A0349087010BD000078
:100CE00014050020000C01400B0000200C00002027
:100CF00010B50024002000F029F804E0601CC4B204
:100D0000012002F093FD4FF400610F4800F05CFAFF
:100D100008B1642CF2DB642C01DB012010BD00243F
:100D200004E0601CC4B2012002F080FD4FF40061B9
:100D3000054800F049FA08B9642CF2DB642C01DBA9
:100D40000120EBE70020E9E70008014038B5044640
:100D500054B14FF40060ADF8000003208DF802009C
:100D600010208DF8030006E04FF40060ADF800009D
:100D700004208DF803006946014800F09AF938BD57
:100D80000008014010B5002404E0601CC4B201203A
:100D900002F04CFD4FF40061104800F015FA08B164
:100DA000642CF2DB002404E0601CC4B2012002F0D9
:100DB0003DFD4FF40061094800F006FA08B9642CC3
:100DC000F2DB282002F032FD4FF40061034800F00E
:100DD000FBF908B1012010BD0020FCE7000801402C
:100DE00070B50024002506E06006040EFFF7CAFF78
:100DF0000443681CC5B2082DF6DB204670BD7CB5E7
:100E000005460E4600F028F8FFF772FFF8B90024F7
:100E100005E0FFF7E5FF0DF80400601CC4B2052CE7
:100E2000F7DB9DF800009DF8011008449DF80210C2
:100E300008449DF8031008449DF80410884208D126
:100E40009DF8000030709DF80200287001E001203C
:100E50007CBD0020FCE7000010B50120FFF776FF05
:100E60004FF40061074800F0B8F9142002F0C0FC0C
:100E70004FF40061034800F0B2F90D2002F0D6FCF7
:100E800010BD00000008014021B1026842F00102DB
:100E9000026004E002684FF6FE731A400260704779
:100EA00010B50022026847F6F0739A430C6A8B680B
:100EB00023430C6923434C6923438C692343CC6946
:100EC00023434C6A23438C6A23431A430260CB6852
:100ED00043600B6883604B68C36010BD70470000BF
:100EE0000149C860704700000020024030B5044648
:100EF00004254FF4302000F0C9F80546042D17D121
:100F00000C48006940F002000A4908610846446143
:100F1000006940F0400008614FF4302000F0B6F85E
:100F200005460448006941F6FD7108400149086121
:100F3000284630BD0020024004200B49C96801F05A
:100F4000010109B101200EE00749C96801F004015F
:100F500009B1022007E00449C96801F0100109B194
:100F6000032000E00420704700200240034800698D
:100F700040F08000014908617047000000200240F5
:100F800070B504460D460426F00200F07FF80646D0
:100F9000042E11D10948006940F001000749086199
:100FA0002580F00200F072F806460448006941F618
:100FB000FE71084001490861304670BD00200240C2
:100FC000014608887047000010B51248FFF7F8FF87
:100FD000114948700F48801CFFF7F2FF0E49087056
:100FE0000C48001DFFF7ECFF0B49C8800948801D25
:100FF000FFF7E6FF084988810846C07B012801DD2C
:101000000020C87303480830FFF7DAFF0249C873AD
:1010100010BD000000F0010804050020024803494B
:10102000486003484860704723016745002002403C
:10103000AB89EFCD2DE9F04704460F4615461E4615
:10104000DDE90889FFF7EAFF3520FFF749FF204671
:10105000FFF74CFF39462046FFF792FF2946A01CB8
:10106000FFF78EFF3146201DFFF78AFF4146A01D86
:10107000FFF786FF494604F10800FFF781FF35209E
:10108000FFF72EFFFFF772FFBDE8F08700B50246BD
:101090000423FFF751FF034603E0FFF74DFF03462C
:1010A000521E012B01D1002AF7D102B9052318469F
:1010B00000BD2DE9F0410246002500260020002356
:1010C0000024002791F803C00CF00F0591F803C02D
:1010D0000CF0100CBCF1000F03D091F802C04CEAE8
:1010E000050591F800C0BCF1000F31D01468002054
:1010F0002BE04FF0010C0CFA00F3B1F800C00CEA41
:1011000003069E4220D183004FF00F0C0CFA03F728
:10111000BC4305FA03FC4CEA040491F803C0BCF19B
:10112000280F06D14FF0010C0CFA00FCC2F814C0D5
:101130000AE091F803C0BCF1480F05D14FF0010C53
:101140000CFA00FCC2F810C0401C0828D1D314606F
:10115000B1F800C0BCF1FF0F34DD546800202EE070
:1011600000F1080C4FF0010808FA0CF3B1F800C0C8
:101170000CEA03069E4221D183004FF00F0C0CFABB
:1011800003F7BC4305FA03FC4CEA040491F803C0DE
:10119000BCF1280F05D100F1080C08FA0CF8C2F8D0
:1011A000148091F803C0BCF1480F07D100F1080C7E
:1011B0004FF0010808FA0CF8C2F81080401C08280B
:1011C000CED35460BDE8F0810246002093680B4006
:1011D0000BB1012000E000207047416170470161C0
:1011E0007047000010B510210448FFF7EDFF08B963
:1011F000012000E000200446204610BD0008014008
:1012000008B50121042000F0B1FF1020ADF8000066
:1012100048208DF8030069460148FFF74AFF08BDE2
:101220000008014000BFFEE7032000BF011EA0F13F
:101230000102D0B2FAD1704710B502210448FFF77D
:10124000C3FF08B9012000E000200446204610BD7D
:101250000008014008B50121082000F087FF482060
:101260008DF803004FF47040ADF8000003208DF8B6
:10127000020069460148FFF71CFF08BD000C014051
:1012800010B54FF480518B48FFF79EFFB8B1002096
:1012900089490870894908808948007828B1002068
:1012A000874908700120874908708748007870B323
:1012B0000020854908700B208249087027E07E488D
:1012C0000078A0B97D480088401C7C490880084609
:1012D00000880A281BDD002008800120784908705A
:1012E0000020794908700120734908700FE07348A5
:1012F0000088401C7149088008460088B0F57A7F54
:1013000005DD00206E49087001206F4908704FF418
:1013100000516848FFF758FFB8B100206B490870CA
:101320006B4908806B48007828B100206949087033
:101330000220644908706848007870B3002066494C
:10134000087016205F49087027E060480078A0B94F
:101350005F480088401C5E490880084600880A28CB
:101360001BDD0020088001205A49087000205A49DE
:1013700008700120554908700FE055480088401C4E
:101380005349088008460088B0F57A7F05DD0020C3
:10139000504908700120504908704FF48041454879
:1013A000FFF712FFB8B100204C4908704C49088083
:1013B0004C48007828B100204A4908700320414970
:1013C00008704948007870B3002047490870212010
:1013D0003C49087027E041480078A0B9404800889F
:1013E000401C3F490880084600880A281BDD002071
:1013F000088001203B49087000203B49087001200B
:10140000364908700FE036480088401C344908808F
:1014100008460088B0F57A7F05DD00203149087064
:101420000120314908704FF400412248FFF7CCFEFB
:10143000B8B100202D4908702D4908802D4800784A
:1014400028B100202B49087004201E4908702A4842
:10145000007870B30020284908702C2019490870C2
:1014600027E022480078A0B921480088401C204984
:101470000880084600880A281BDD0020088001201B
:101480001C49087000201C49087001201749087089
:101490000FE017480088401C15490880084600885E
:1014A000B0F57A7F05DD002012490870012012494D
:1014B000087010BD000C0140230000202000002017
:1014C00022000020370000202400002029000020F6
:1014D00026000020280000202A0000202F000020E5
:1014E0002C0000202E0000203000002035000020BD
:1014F0003200002034000020360000202DE9F04F9B
:1015000087B04FF0000B28490888FEF7C2FF8346DA
:1015100026495846FEF76CFE04464FF08B41FEF715
:1015200099FE82465046FEF7CDFF80460022204BB2
:10153000FEF7CEFECDE9020151461C48FEF752FEF1
:101540008046FEF7BFFF0646DDE90223FEF732FFC5
:101550000446FEF7CAFF0690164805900698FEF767
:10156000B1FF06460F460598FEF7ACFF124A134B33
:10157000CDE90001FEF7ACFE32463B46CDE9020163
:10158000FEF718FF04464FF060420D4B02F000FCDE
:101590008046FEF7AAFF04900498FEF77FFF80B212
:1015A00007B0BDE8F08F0000480000200000A04018
:1015B0000000E03FE17AD440A089B0E1E91527407E
:1015C000F0F4E43F012806D002280FD003281CD0F5
:1015D00004282ED123E018490978032905D10121D7
:1015E000164A11700021144A117023E0124909783B
:1015F000032909D10021104A1170104949780129A5
:1016000002D001210D4A517014E00B4909780429D8
:1016100004D10021094A9172074A11700AE0064973
:101620000978042904D10021044A5172024A117038
:1016300000E000BF00BF7047370000201405002005
:1016400008B50A48807A012807D1102324222021D6
:101650000090602000F080FA07E00120102325228E
:1016600020210090602000F077FA08BD14050020CA
:1016700000BFFEE77047000070B5002100230F2275
:10168000C47804B3154C246804F4E064C4F5E06441
:10169000210AC1F10403CA40447804FA03F18478B2
:1016A0001440214309010E4C0678A155047804F03A
:1016B0001F050124AC4005786D11AD0005F1E02552
:1016C000C5F8004109E0047804F01F050124AC408E
:1016D000044D0678761145F8264070BD0CED00E00B
:1016E00000E400E080E100E002490143024A1160A9
:1016F000704700000000FA050CED00E070B5002412
:101700000CE0002506E00020074901EBC501085563
:10171000681CC5B2802DF6DB601CC4B2082CF0DB5F
:1017200000F020F970BD000070000020F0B51446F4
:101730000B46CF1701EB5777C7F3C702CF1701EB63
:101740005777FF10A1EBC707FEB20123B340DDB20C
:101750004CB1134B03EBC0039B5C2B43104F07EBC7
:10176000C007BB541AE00E4B03EBC0039B5CDB438A
:101770000B4F07EBC007BB54094B03EBC0039B5C4B
:101780002B43074F07EBC007BB54054B03EBC003CC
:101790009B5CDB43024F07EBC007BB54F0BD00006E
:1017A0007000002010B580210A48FFF718FD402185
:1017B0000848FFF714FDFFF737FD80210548FFF7C4
:1017C0000CFDFFF731FD40210248FFF706FDFFF752
:1017D0002BFD10BD000C014010B580210648FFF71D
:1017E000FCFC40210448FFF7FAFCFFF71DFD8021B7
:1017F0000148FFF7F4FC10BD000C014010B580213A
:101800000848FFF7ECFCFFF70FFD40210548FFF704
:10181000E6FCFFF709FD40210248FFF7DEFCFFF779
:1018200003FD10BD000C014008B50121082000F0A7
:101830009DFC4020ADF8000014208DF8030003202B
:101840008DF8020069464048FFF733FC40213E48CE
:10185000FFF7C5FC8020ADF8000069463A48FFF765
:1018600028FC80213848FFF7BAFCC82001F0C0FFEF
:101870000021AE2000F063FA0021084600F05FFA74
:101880000021102000F05BFA0021402000F057FA00
:101890000021812000F053FA0021CF2000F04FFA00
:1018A0000021A12000F04BFA0021C82000F047FAE7
:1018B0000021A62000F043FA0021A82000F03FFA02
:1018C00000213F2000F03BFA0021D32000F037FA3E
:1018D0000021084600F033FA0021D52000F02FFA4D
:1018E0000021802000F02BFA0021D92000F027FAF7
:1018F0000021F12000F023FA0021DA2000F01FFA85
:101900000021122000F01BFA0021DB2000F017FA62
:101910000021302000F013FA0021202000F00FFAFF
:101920000021022000F00BFA00218D2000F007FAC0
:101930000021142000F003FAFFF7E0FE0021AF20A1
:1019400000F0FDF908BD0000000C014010B5024692
:10195000012000E050430B1EA1F10104E1B2F9D1D6
:1019600010BD000070B500242BE004F1B001C8B236
:10197000002100F0E4F90021084600F0E0F9002120
:10198000102000F0DCF9FFF70DFF782000F01EF8C2
:10199000FFF734FF402000F019F8FFF72FFF002574
:1019A00009E0094901EBC501085D00F00FF8FFF7F8
:1019B00025FF681CC5B2802DF3DBFFF70DFF601C0F
:1019C000C4B2082CD1DB70BD7000002070B5044695
:1019D00000251BE004F0800020B180210D48FFF7B6
:1019E000FEFB03E080210B48FFF7F7FBFFF71CFC31
:1019F00040210848FFF7F3FBFFF716FC402105489C
:101A0000FFF7EBFB6006040E681CC5B2082DE1DB96
:101A100070BD0000000C01402DE9FE4F07468846CE
:101A200092461C460197CDF80080082C02D14FF059
:101A300006091FE02046E31704EB5373DB10214631
:101A40004FEAE47C04EB5C7C4FEAEC0CA4EBCC0C9E
:101A5000BCF1000F02D04FF0010C01E04FF0000C80
:101A60006344224604EBD27C4FEA6C0C03FB0CF37C
:101A700003F0FF09AAF12000C6B200255EE0082CA1
:101A800007D106EB4600304901EB400010F805B0E5
:101A90001DE00C2C07D106EB46002C4901EB800021
:101AA00010F805B013E0102C05D1294800EB061002
:101AB00010F805B00BE0182C07D106EBC60025493D
:101AC00001EB800010F805B001E0BDE8FE8F0020BA
:101AD00002901CE00BF0010028B1414638460C9AF8
:101AE000FFF724FE09E00C9808B9012000E000206F
:101AF000024641463846FFF719FE4FEA6B0B08F1E4
:101B0000010000F0FF080298401CC0B20290029849
:101B10000828DFDB781CC7B2082C0BD004EBD4718B
:101B20004A100199791A8A4204D1019F009808301D
:101B3000C0B20090DDF80080681CC5B24D459EDB48
:101B4000FFF710FF00BFC0E7B2480008DA4A0008FC
:101B50004E4F00083E5500082DE9FC4F07468846C9
:101B600016461C46BB46CDF804802046E21704EB1F
:101B70005272D2102146E31704EB5373DB10A4EB2F
:101B8000C3030BB1012300E000231A44624392B265
:101B90000092002555E0102C05D12C4800EB461092
:101BA00010F805A01BE0182C07D106EBC600284949
:101BB00001EBC00010F805A011E0202C05D125484C
:101BC00000EBC61010F805A009E0402C05D1224812
:101BD00000EB462010F805A001E0BDE8FC8F4FF0B7
:101BE00000091CE00AF0010028B1414638460B9A72
:101BF000FFF79CFD09E00B9808B9012000E00020E8
:101C0000024641463846FFF791FD4FEA6A0A08F15D
:101C1000010000F0FF0809F1010000F0FF09B9F12F
:101C2000080FDFDB781CC7B2A7EB0B00A04204D182
:101C30005F4601980830C0B20190DDF80480681C4E
:101C400085B200988542A6DB00BFC6E79A6200080D
:101C50009A680008E2680008626900082DE9FF4FF1
:101C600083B0064691461F46DDE9104A4FF0000B4F
:101C7000082C01D14FF0020B002532E0781B401EEA
:101C8000C1B20A20FFF762FEB9FBF0F00A21B0FBF7
:101C9000F1F201FB1208B8F1000F0FD104EBD4717F
:101CA0000BEB610101FB0561C8B223463022CDF880
:101CB00000A002940499FFF7AFFE10E004EBD4718A
:101CC0000BEB610101FB0561C8B208F13001CAB23A
:101CD0002346CDF800A002940499FFF79DFE681CEE
:101CE000C5B2BD42CADBFFF73DFE07B0BDE8F08FCD
:101CF0002DE9F84306460F4614461D46DDF82080C0
:101D000013E0CDF8008022782B4639463046FFF7A5
:101D100083FE082D02D1B01DC6B205E0284605EBB2
:101D2000D07106EB6101CEB2641C2078202802DB62
:101D300020787E28E5DDFFF715FEBDE8F88370B555
:101D400005460C46FFF72EFD7820FFF73FFEFFF714
:101D500055FD1CB14020FFF739FE02E00020FFF7DF
:101D600035FEFFF74BFD2846FFF730FEFFF746FD37
:101D7000FFF732FD70BD08B5012010230022114687
:101D800000901046FFF7E8FE0120102302220021F8
:101D900000901846FFF7E0FE012010233A220021B0
:101DA00000902020FFF738FE01201023024600217A
:101DB00000904020FFF7D0FE0120102302220021D6
:101DC00000905020FFF7C8FE012010233A22002186
:101DD00000906020FFF720FE08BD38B50446012CB6
:101DE00002D0022C42D120E0012010233E2200210B
:101DF00000900846FFF710FE01201023202219460C
:101E000000900020FFF708FE012010232022114639
:101E100000900020FFF700FE012010232022302137
:101E200000900020FFF7F8FD21E001201023202280
:101E3000002100900846FFF7EFFD012010233E220D
:101E4000194600900020FFF7E7FD01201023202213
:101E5000114600900020FFF7DFFD01201023202213
:101E6000302100900020FFF7D7FD00E000BF00BF49
:101E700038BD08B501201023182200210090184613
:101E8000FFF76AFE01201023192200210090202074
:101E9000FFF762FE012010231A220021009030205B
:101EA000FFF75AFE012010233A2200210090402023
:101EB000FFF7B2FD012010231322302100901846B5
:101EC000FFF74AFE01201023142230210090202029
:101ED000FFF742FE012010233A22302100900846ED
:101EE000FFF79AFD08BD000038B504464148007868
:101EF000062831D2DFE800F030030C151E27012040
:101F000010232022002100900846FFF785FD24E0E1
:101F1000012010232022194600900020FFF77CFDAD
:101F20001BE0012010232022114600900020FFF723
:101F300073FD12E0012010232022302100900020A8
:101F4000FFF76AFD09E00120102320220021009004
:101F50000846FFF761FD00E000BF00BF012C02D082
:101F6000022C42D120E0012010233E2200210090CB
:101F70000846FFF751FD012010232022194600904A
:101F80000020FFF749FD0120102320221146009078
:101F90000020FFF741FD0120102320223021009076
:101FA0000020FFF739FD21E001201023202200212D
:101FB00000900846FFF730FD012010233E2219460D
:101FC00000900020FFF728FD012010232022114659
:101FD00000900020FFF720FD012010232022302157
:101FE00000900020FFF718FD00E000BF00BF01488F
:101FF000047038BD0D00002008B501201023002218
:10200000114600901846FFF7A7FD01201023022279
:10201000002100902020FFF79FFD012010231B22AC
:10202000002100903020FFF797FD012010231C2293
:10203000002100904020FFF78FFD012010233A225D
:10204000002100905020FFF7E7FC012010230246FA
:10205000194600901846FFF77FFD01201023022249
:10206000194600902020FFF777FD012010231B2246
:10207000194600903020FFF76FFD012010231C222D
:10208000194600904020FFF767FD012010233A22F7
:10209000194600905020FFF7BFFC08BD08B501208D
:1020A00010232622002100901846FFF755FD01203D
:1020B00010232722002100902020FFF74DFD012052
:1020C00010232822002100903020FFF745FD012039
:1020D00010232922002100904020FFF73DFD012020
:1020E00010233A22002100905020FFF795FC08BDF4
:1020F0007047000001460020034A506820F4404029
:1021000008435060704700000010024029B1064AA1
:1021100052690243044B5A6104E0034A5269824304
:10212000014B5A61704700000010024029B1064A75
:10213000D2690243044BDA6104E0034AD269824364
:10214000014BDA61704700000010024029B1064AD5
:1021500012690243044B1A6104E0034A1269824384
:10216000014B1A61704700000010024029B1064A75
:1021700092690243044B9A6104E0034A92698243E4
:10218000014B9A61704700000010024029B1064AD5
:10219000D2680243044BDA6004E0034AD268824307
:1021A000014BDA60704700000010024030B500219A
:1021B0000022002400232D4D6D6805F00C0121B193
:1021C000042905D0082923D105E0294D056022E026
:1021D000274D05601FE0254D6D6805F47012234DF5
:1021E0006D6805F48034022505EB92421CB9214D3F
:1021F000554305600BE01D4D6D6805F400351DB1BC
:102200001C4D5543056002E0194D5543056002E041
:10221000174D056000BF00BF144D6D6805F0F0015B
:102220000909154D6B5C0568DD4045600F4D6D6813
:1022300005F4E061090A104D6B5C4568DD4085607E
:102240000A4D6D6805F46051C90A0B4D6B5C456819
:10225000DD40C560054D6D6805F44041890B074DB3
:102260006B5CC568B5FBF3F5056130BD001002403D
:1022700000127A0000093D004E0000205E000020A0
:1022800008B501210820FFF771FF0220ADF800001A
:1022900003208DF8020010208DF8030069460448E1
:1022A000FEF707FF02210248FEF797FF08BD000076
:1022B000000C014008B54020ADF8000001208DF869
:1022C000020004208DF8030069460248FEF7F1FE83
:1022D00008BD00000008014008B54020ADF800002E
:1022E00010208DF8030003208DF802006946024893
:1022F000FEF7DFFE08BD00000008014010B5002019
:102300000A490860FFF7E8FF00200949C1F8980171
:10231000142001F08BFA012004490860142001F018
:1023200085FA00200249C1F8940110BD94012142B0
:102330000000214210B500200A490860FFF7CCFFD9
:1023400001200949C1F89801142001F06FFA012019
:1023500004490860142001F069FA00200249C1F81C
:10236000940110BD940121420000214270B5054640
:102370000024FFF79FFF002618E0002010490860A6
:10238000142001F053FA01200E49C1F894014FF6D0
:10239000FF7000EA44040A487C38006808B1601CF9
:1023A00084B2142001F042FA701CC6B2082EE4DB9D
:1023B00015B9FFF7BFFF01E0FFF7A0FF204670BD92
:1023C000940121420000214270B50446FFF784FFCA
:1023D00000201449086000251EE0E00920B101201A
:1023E0001049091D086003E000200E49091D08601E
:1023F0006006040E142001F019FA01200949086052
:10240000142001F013FA00200749C1F894011420A8
:1024100001F00CFA681CC5B2082DDEDB142001F0B7
:1024200005FA70BD940121420000214210B5FFF76A
:1024300053FF0120094908600949C1F8940114209B
:1024400001F0F4F9002005490860142001F0EEF9CC
:1024500000200349C1F8940110BD000098012142F9
:102460000000214210B5FFF737FF0020084908603F
:102470000849C1F89801142001F0D8F90120044955
:1024800008600449C1F89801142001F0CFF910BD8B
:10249000940121420000214210B50024FFF70AFFF9
:1024A00001200F4908600A2001F0C0F901200D4900
:1024B000C1F894010A2001F0B9F907E0601CC4B228
:1024C000FA2C03DDFFF7CEFF012010BD0448803851
:1024D00000680028F2D10249091F086000BFF4E734
:1024E000980121420000214270B5FFF79FFFB12003
:1024F000FFF76AFFFFF7D0FF0120FFF737FF044621
:1025000024020120FFF732FF04440120FFF72EFFD1
:10251000C5B200BF24020120FFF728FF04442402B3
:102520000020FFF723FF0444FFF79CFF204670BD07
:1025300070B505460C46FFF779FFB020FFF744FF62
:10254000FFF7AAFF2846FFF73FFFFFF7A5FF20464A
:10255000FFF73AFFFFF7A0FFFFF784FF642001F0C9
:1025600047F970BD704700001CB501201021CDE96E
:10257000001030484278022300212820FFF76EFB2C
:1025800001201021CDE900102A4802780223002101
:102590006820FFF763FB01201021CDE900102548DA
:1025A000C28804234820FFF759FB0120102322A2F0
:1025B000194600906820FFF79BFB01201021CDE910
:1025C00000101C484289042320214820FFF746FBC5
:1025D0000120102318A2202100906820FFF788FB1B
:1025E0001448008A40B101201023032230210090BA
:1025F0002820FFF7B1FA07E0012010230422302140
:1026000000902820FFF7A8FA0A48408A40B101202C
:1026100010230322302100907020FFF79DFA07E07D
:10262000012010230422302100907020FFF794FA3B
:102630001CBD0000F004002070706D00F8B501F0C2
:10264000A5F806463149481CFEF7D9FB304800780A
:1026500020B9FEF7A7F901202D490870FEF74EFFBB
:102660002A49C880FEF7BEFD28494882FEF7E4FDEE
:10267000264908820020009000250024684600F0CA
:102680002DF9BDF8000028B1BDF8000041F28831F5
:1026900088420EDD1F482049097830F8110010B932
:1026A0004FF4C87004E01B481B49097830F811004A
:1026B0000090BDF800001749174A127821F812005F
:1026C00015480078401C052190FBF1F201FB120037
:1026D00011490870002405E00E4830F81400054444
:1026E000601CC4B2052CF7DB0520B5FBF0F00749F0
:1026F00048810846408928B10846408941F288311E
:10270000884202DD002001494881F8BDF004002024
:102710003E000020200500203F00002007480078F0
:10272000022807D100200549087005480078401CA0
:102730000349087002480078704700003700002005
:10274000060000200848007802280AD107480078CF
:1027500038B900200449087005480078401C044935
:1027600008700348007870473700002003000020FD
:102770000700002010B500F001F810BD0CB50020D6
:10278000019000903348006840F48030314908607F
:1027900000BF3048006800F4003000900198401CF1
:1027A0000190009818B90198B0F5A06FF1D12948AF
:1027B000006800F4003010B10120009001E000201A
:1027C00000900098012843D12348006840F0100091
:1027D000214908600846006820F0030008600846A8
:1027E000006840F0020008601A48406819494860D3
:1027F0000846406848600846406840F48060486089
:102800000846406820F47C1048600846406840F460
:10281000E81048600846006840F08070086000BF1B
:102820000C48006800F000700028F9D009484068A2
:1028300020F00300074948600846406840F0020065
:10284000486000BF0348406800F00C000828F9D138
:102850000CBD000000100240002002401CB5012009
:102860001021CDE9001014484278022300215A209B
:10287000FFF7F4F901201021CDE900100E4802788D
:1028800002235A20FFF7EAF901201021CDE90010B8
:102890000948C288042320215A20FFF7DFF90120CC
:1028A0001021CDE9001004488289042330215A20E8
:1028B000FFF7D4F91CBD00000405002008B5064848
:1028C000C07B012806D110232422002100905A2029
:1028D000FFF742F908BD00000405002070B504466A
:1028E000002508212020FFF723FEFFF7FDFD054608
:1028F000B5F1C87F01D0280C208070BD042808D114
:102900004FF0E021096941F004014FF0E02211612C
:1029100007E04FF0E021096921F004014FF0E022C7
:10292000116170477047000010B51348006840F00F
:1029300001001149086008464068104908400E49E6
:102940004860084600680E4908400B490860084680
:10295000006820F4802008600846406820F4FE00EB
:1029600048604FF41F008860FFF704FF4FF00060DD
:102970000449086010BD0000001002400000FFF88C
:10298000FFFFF6FE08ED00E010B50121880700F01A
:10299000A3F838B1FEF774FC00F0FEFE01218807B1
:1029A00000F08BF810BD7FB504460D4601210846A6
:1029B000FFF7BCFB0020ADF80A00ADF80600ADF84B
:1029C0000850ADF804408DF80C0001A94FF080408C
:1029D00000F09CF801221146900700F08EF81C20B0
:1029E0008DF8000001208DF803008DF80100022011
:1029F0008DF802006846FEF73FFE0121880700F0CF
:102A00005FF87FBD10B50121054800F065F828B1D9
:102A10000121034800F051F800F072FF10BD0000E2
:102A2000000400407FB505460C464FF4A060FEF759
:102A30005BFE1D208DF80C0000208DF80D0003209A
:102A40008DF80E0001208DF80F0003A8FEF714FE8C
:102A500001210220FFF76AFBADF80450ADF80040F9
:102A60000020ADF80600ADF802008DF808006946B8
:102A7000084800F04BF80121064800F01BF801223D
:102A80001146044800F039F80121024800F018F816
:102A90007FBD00000004004010B50121044800F093
:102AA0001BF818B10121024800F007F810BD000022
:102AB00000080040CA4302827047CA43028270473E
:102AC00021B1028842F00102028004E002884FF640
:102AD000FE731A400280704730B502460020002382
:102AE0000024158A05EA0103958905EA010413B15A
:102AF0000CB1012000E0002030BD1AB183890B43E6
:102B0000838102E083898B4383817047002202889E
:102B10001D4B98420ED01D4B98420BD0B0F1804F08
:102B200008D01B4B984205D01A4B984202D01A4B42
:102B3000984204D14FF68F731A404B881A43174BB3
:102B4000984207D0164B984204D04FF6FF431A40E4
:102B5000CB881A4302808B8883850B8803850A4BB8
:102B600098420BD0094B984208D00E4B984205D0A2
:102B70000D4B984202D00D4B984201D10B7A03863F
:102B80000123838270470000002C01400034014083
:102B90000004004000080040000C0040001000400D
:102BA0000014004000400140004401400048014042
:102BB000062877D2DFE800F076031A314A613B49F4
:102BC0000978032911D10021384A11703849497810
:102BD000491C374A517011464978282901DD1421D2
:102BE000517033494978334AD1615CE02F49097803
:102BF000032911D100212D4A11702D490978491D51
:102C00002B4A117011460978462901DD1E211170E9
:102C100027490978274A116245E0244909780329A0
:102C200013D10021214A11702149C9883231204A2B
:102C3000D1801146C988B1F5FA6F02DD4FF4FA71FF
:102C4000D1801B49C9881B4A91622CE01749097839
:102C5000032911D10021154A1170154989890A31BA
:102C6000134A918111468989962901DD0A219181B2
:102C70000F4989890F4A516215E00C4909780329E7
:102C800003D00A49097804290BD10021074A1170A1
:102C90000749C97B11B9012101E003E00021044A81
:102CA000D17300BF00BF00BF704700003700002095
:102CB000040500202A05002000B585B0012144F25A
:102CC0000400FFF753FA4FF40070ADF8100018201D
:102CD0008DF8130003208DF8120004A91348FEF7A5
:102CE000E8F94FF48060ADF8100004208DF813006F
:102CF00004A90E48FEF7DDF94FF4E1300090002002
:102D0000ADF80400ADF80600ADF80800ADF80C0011
:102D10000C20ADF80A006946054800F0DDF90121F4
:102D2000034800F023F905B000BD00000008014091
:102D30000038014000B587B001214804FFF7F6F9DB
:102D400001210420FFF712FA0420ADF81800032037
:102D50008DF81A0018208DF81B0006A91D48FEF7F3
:102D6000A8F90820ADF8180004208DF81B0006A96A
:102D70001848FEF79EF926208DF8040000208DF8F3
:102D8000050002208DF8060001208DF8070001A83B
:102D9000FEF772FC4FF4165002900020ADF80C00C4
:102DA000ADF80E00ADF81000ADF814000C20ADF831
:102DB000120002A9084800F08FF9012240F22551C3
:102DC000054800F064F90121034800F0CFF807B08E
:102DD00000BD0000000801400044004008B540F27A
:102DE0002551094800F029F968B140F225510648FB
:102DF00000F0ADF8044800F0DBF9C0B2009001210A
:102E0000684600F043FD08BD0044004000B587B0AF
:102E100001210846FFF7AAF901210820FFF7A6F9CA
:102E200001218804FFF782F9244800F0ABF84FF441
:102E30008060ADF8140003208DF8160018208DF87E
:102E4000170005A91E48FEF734F94FF40060ADF8ED
:102E5000140004208DF8170005A91948FEF729F978
:102E60004FF4165001900020ADF80800ADF80A00AC
:102E7000ADF80C00ADF810000C20ADF80E0001A963
:102E80000E4800F029F901210C4800F06FF80122EA
:102E900040F22551094800F0FAF827208DF8180073
:102EA00000208DF819008DF81A0001208DF81B0004
:102EB00006A8FEF7E1FB07B000BD00000048004097
:102EC000000C014010B540F225510A4800F0B5F859
:102ED00078B1084800F06CF9C4B2312C03D101205C
:102EE000054908703524322C03D1002002490870AE
:102EF000352410BD004800400100002010B50446F4
:102F000000BF8021084800F08BF80028F9D0214646
:102F1000054800F052F900BF4021034800F080F856
:102F20000028F9D010BD00000048004010B504464C
:102F300003E02078FFF7E2FF641C20780028F8D136
:102F40000D20FFF7DBFF0A20FFF7D8FF10BD10B5FB
:102F50000022002340F66A14A14200D100BF0A12E9
:102F600001249440A3B2DC43048010BD21B18289C6
:102F700042F40052828104E082894DF6FF731A40C8
:102F80008281704710B504462048844209D101214E
:102F90008803FFF7FBF800214FF48040FFF7F6F8B5
:102FA00032E01B48844209D101214804FFF7CEF8E2
:102FB00000214FF40030FFF7C9F825E0154884429E
:102FC00009D101218804FFF7C1F800214FF48020C6
:102FD000FFF7BCF818E01048844209D10121C80469
:102FE000FFF7B4F800214FF40020FFF7AFF80BE033
:102FF0000A48844208D101210805FFF7A7F80021FB
:103000004FF48010FFF7A2F810BD00000038014017
:103010000044004000480040004C00400050004088
:1030200002460020B1F5007F00D100BF13880B409D
:103030000BB1012000E00020704770B5024600246B
:1030400000230025002040F66A16B14200D100BFDF
:10305000C1F3421501F01F03012606FA03F3012D07
:1030600002D19689334006E0022D02D1168A334000
:1030700001E0968A33400C12012606FA04F4168801
:10308000344013B10CB1012000E0002070BDF0B558
:103090000346002400260025002040F66A17B942A6
:1030A00000D100BF1846C1F3421401F01F060127EA
:1030B00007FA06F5012C01D10C3004E0022C01D1F5
:1030C000103000E014301AB107682F43076002E0A7
:1030D0000768AF430760F0BD2DE9F04786B00546AD
:1030E0000E460024A24600BFA1460027B08900B1C9
:1030F00000BF2F462C8A4CF6FF700440F088044332
:103100002C82AC894EF6F3100440B0883189084314
:10311000718908430443AC81AC8A4FF6FF400440F8
:10312000B0890443AC8201A8FFF740F81F488742EA
:1031300002D1DDF810A001E0DDF80CA0A88900F4B0
:10314000004040B10AEBCA0000EB0A1031684900A8
:10315000B0FBF1F807E00AEBCA0000EB0A10316897
:103160008900B0FBF1F86420B8FBF0F004012009FD
:10317000642101FB1089A88900F4004040B132208D
:1031800000EBC900B0FBF1F000F00700044308E0D9
:10319000322000EB09106421B0FBF1F000F00F00C9
:1031A00004432C8106B0BDE8F087000000380140E0
:1031B00001468888C0F308007047C1F30802828086
:1031C000704700BFFEE700000FB4054B10B503A920
:1031D000044A029800F0A8F810BC5DF814FB000047
:1031E0006938000868000020490050EAC12018BF73
:1031F00004204A0D18BF40F0010040F2FF72B2EB0C
:10320000515F08BF40F00200012808BF0520704749
:103210002DE9F0414F1E00EBC7010446D1E9000142
:1032200015461E4637F006020DD02A463346FDF7F6
:103230004FF87F1E04EBC703D3E90023FDF736FAEE
:1032400037F00602F1D1022F25D0042F13D0062F1C
:1032500018BFBDE8F0812A463346FDF739F8D4E9B6
:103260000A23FDF723FA2A463346FDF731F8D4E95D
:103270000823FDF71BFA2A463346FDF729F8D4E95F
:103280000623FDF713FA2A463346FDF721F8D4E961
:103290000423FDF70BFA2A463346FDF719F8D4E963
:1032A0000223FDF703FA2A463346FDF711F8D4E965
:1032B0000023BDE8F041FDF7F9B9000000221346F4
:1032C00010460149FDF776B80000F03FFDF7EEB972
:1032D0000022134610461146FDF76CB840F2013249
:1032E00000204FF0E041FDF788BA0000024A0020BC
:1032F0001107FDF782BA000001FDFFFF02E008C8D8
:10330000121F08C1002AFAD170477047002001E05F
:1033100001C1121F002AFBD170470000014908605B
:10332000704700006C0000202DE9FF4F8DB00F4664
:103330000546002606E025280BD0DDE90F12904750
:103340006D1C761C28780028F5D111B03046BDE8F8
:10335000F08F0024A246A1460122EC4900E004437C
:1033600015F8013F203B02FA03F00842F7D1287814
:103370002A2810D06FF02F022878A0F130010929F7
:1033800014D80AEB8A0102EB410144F0020400EB7D
:10339000010A6D1CF0E701CF5FEA000A03D544F48F
:1033A0000054CAF1000A44F002046D1C28782E284B
:1033B00017D115F8010F44F004042A280ED06FF03D
:1033C0002F022878A0F1300109290AD809EB8901D8
:1033D00002EB410100EB01096D1CF2E757F8049B79
:1033E0006D1C28786C280FD006DC4C2817D0682874
:1033F0000DD06A2814D104E0742810D07A280FD197
:103400000DE044F400140AE044F4801401E044F4B4
:1034100040146978814202D104F580146D1C6D1C42
:103420002A786E2A1FD00CDC632A31D004DC002AF3
:103430008BD0582A11D1A3E0642A68D0692A0CD114
:1034400065E0732A2ED004DC6F2A73D0702A04D171
:103450009BE0752A6FD0782A6ED01046DDE90F12F6
:103460009047761C50E1C4F30250022806D003288E
:1034700009D0042801CF09D0066045E101CFF1173A
:10348000C0E9006140E101CF06803DE106703BE10B
:1034900017F8040B8DF8000000208DF80100EB46B2
:1034A000012003E057F804BB4FF0FF3061074FF0F5
:1034B000000102D40DE008F10101884649450FDA08
:1034C0008045F8DB1BF808100029F4D108E008F16A
:1034D000010188468142FADB1BF808100029F6D169
:1034E000DDE90F23AAEB08008146214600F036F9FA
:1034F000304400EB080604E0DDE90F121BF8010B75
:103500009047B8F10108F7D221464846F7E00A2172
:10351000C4F302534FF0000B0891022B04D001CFEB
:10352000C117032B09D00AE0FF1D27F00707F7E8B2
:10353000020108E032E01FE020E000B2C117042BD6
:1035400001D140B2C117031E71F1000307DA4FF039
:10355000000CD0EB0C006CEB01012D2302E02305E5
:1035600004D52B238DF82430012303E0E30701D099
:103570002023F7E7984658E00A2110E010210EE0DA
:1035800010204FF0000B08900CE010214FF0000BC2
:1035900044F004044FF00809089103E008214FF0BB
:1035A000000B0891C4F30253022B04D001CF002179
:1035B000032B06D006E0FF1D27F00707F7E80201FE
:1035C00003E080B2042B00D1C0B24FF00008230703
:1035D0002BD5702A07D0DDF820C08CF0100C5CEAE7
:1035E0000B0C05D00EE040238DF82430012308E0B9
:1035F00050EA010306D030238DF824308DF82520C1
:1036000002239846DDF820C08CF0080C5CEA0B0C15
:103610000BD150EA010301D1630706D530238DF8A1
:1036200024304FF00108A9F10109582A04D038A22A
:103630000B9208AA0A920BE03AA2F9E75B46089AB5
:10364000FCF76FFF0B9B9B5C0A9A521E0A92137049
:1036500050EA0102F2D10A98ADEB000000F1200B14
:10366000600702D524F4803401E04FF00109D94508
:1036700002DDA9EB0B0000E0002000EB0B01414450
:103680000890AAEB010AE00306D4DDE90F232146E6
:10369000504600F063F806444FF0000908E009A91D
:1036A00011F80900DDE90F12904709F10109761CB4
:1036B000C145F4DBE0030CD5DDE90F23214650467C
:1036C00000F04CF8064404E0DDE90F12302090478A
:1036D000761C0899481E08900029F5DC08E00A9835
:1036E0000A990078491C0A91DDE90F129047761C6F
:1036F000BBF10001ABF1010BF1DC21465046DDE9E5
:103700000F2300F019F806446D1C1BE60928010080
:103710003031323334353637383961626364656647
:103720000000000030313233343536373839414209
:1037300043444546000000002DE9F04104460025C1
:103740001E461746880404D405E039462020B047B9
:103750006D1C641EF9D52846BDE8F0812DE9F041C5
:10376000044600251E469046C80301D5302700E0D8
:103770002027880404D505E041463846B0476D1C33
:10378000641EF9D52846BDE8F081000001480068B4
:10379000704700004400002002480068401C0149B6
:1037A000086070474400002010B504466FF0040024
:1037B000FFF7A4F8E11704EB5171C1F3C701094AFF
:1037C00011701046007800EB4001C1EBC0104FF6BD
:1037D000FF7101EAC0000449088000200349086025
:1037E00010BD0000400000204200002044000020E6
:1037F00001460D4A12884A434FF0E0235A610022E5
:103800009A6101221A6100BF4FF0E022106900F0B6
:1038100001021AB100F48032002AF5D000224FF0E4
:10382000E0231A619A6170474200002001460D4A68
:1038300012784A434FF0E0235A6100229A61012234
:103840001A6100BF4FF0E022106900F001021AB1C6
:1038500000F48032002AF5D000224FF0E0231A61F4
:103860009A6170474000002070B504460D46E1B2F1
:103870000548FFF7A2FC00BF0348008800F0800065
:103880000028F9D0204670BD0038014070B50446CC
:103890000D46002624B90AA0FFF796FC701E70BDE5
:1038A0002A4621460E4800F091FF0646AE4205D05A
:1038B0000CA0FFF789FC4FF0FF30F0E73046EEE751
:1038C0004552523A2067697A507574446174612098
:1038D00062756620697320656D707479200A000036
:1038E000740700204552523A204661696C65642095
:1038F000746F2072625772697465200A00000000BC
:1039000002480068401C01490860704764000020BC
:103910001CB5FFF709F84820FFF746FFFDF742F80E
:10392000FFF7CAF9FFF706FAFFF770FAFDF792FC06
:10393000FDF766FCFDF778FFFEF7A2FCFDF7DEFE63
:103940006420FFF755FFFDF73FFB40F2E7314720CA
:10395000FFF729F8472140F2E730FFF763F8F24814
:10396000407814281FDBF048407832281BDCEE48F2
:1039700000781E2817DBEC480078462813DCEA485C
:10398000C088B0F5FA7F0EDBE748C08840F2DC5112
:10399000884208DCE4488089B0F57A7F03DCE2489D
:1039A000C07B01282CDD1E20DF49487032200870C2
:1039B00040F2DC50C880142088810020C873FDF7D5
:1039C0002DFBD9484178D948FDF7DAFAD648017875
:1039D000D648801CFDF7D4FAD348C188D348001DCF
:1039E000FDF7CEFAD0488189D048801DFDF7C8FA8E
:1039F000CD48C17BCD480830FDF7C2FAFDF7B6FAD5
:103A0000CBA0FFF793FA4FF49670FFF7F1FECAA030
:103A1000FFF78CFAC820FFF7EBFECAA0FFF7D4FB34
:103A2000C820FFF7E5FE7EE1FFF7B0FE0646C74877
:103A30000068301A642803D9FEF700FEC348066008
:103A4000C34804787CB3C3480078012804D0022816
:103A50001ED0032826D124E0012C0DD10220BD491F
:103A600008700120BC4908700020BC4908704870EB
:103A70004872B74908700AE00B2C08D10320B549F9
:103A800008700120B64908700020B149087009E0AB
:103A9000012C05D10120AF4908700020AC49087005
:103AA00000E000BF00BFAF480078AA49097888420B
:103AB0001AD0FDF723FEA7480078012804D0022879
:103AC00005D0032809D105E0FEF755F905E0FEF71A
:103AD000D0F902E0FEF790FA00BF00BFFDF742FF09
:103AE0009C4800789F4908709A480078012804D0C3
:103AF000022809D0032806D172E0FEF735FDFDF754
:103B000095F8FDF7D1F803E19648007891490978D6
:103B1000884216D0002094490870944908708F4854
:103B20000078934908708D484078924908700120C8
:103B300091490870884908700020884908704870C9
:103B40004872FEF7EBFD0546002784480078884957
:103B50000978884205D181484078864909788842A9
:103B600008D001277D480078814908707B4840785B
:103B7000804908707C48007838B17C4800788542DC
:103B800003D117B97C48007880B1FEF772F9284656
:103B9000FEF723F9FDF754FD0120734908707348BF
:103BA0000570002074490870FDF7DCFE74B12846EA
:103BB000FDF708FDFEF75DF92846FEF70EF9FDF763
:103BC0003FFDFDF7CFFE002061490870FEF751F977
:103BD0002846FEF702F9FDF733FDFDF765F897E09B
:103BE000FEF7B0FD054665480078854212D0042DE9
:103BF00003DC62480078052805D0052D08D15F4810
:103C00000078042804DCFDF779FD00205C49087089
:103C10005A480570002C5CD05A480078012829D1F8
:103C2000022C03D0032C01D0042C05D1FDF79AFE01
:103C30000020474908704CE0012C4AD1002051492E
:103C40000870012050490870FDF758FD052D04D17A
:103C5000FEF724FAFEF732FE03E0FEF7CDF9FEF799
:103C6000FDFD2846FEF740F9FDF77CFE00203849AF
:103C700008702EE0032C01D0042C0FD12846FEF74B
:103C800097FF052D02D1FEF719FE01E0FEF7E6FDD4
:103C9000FDF768FE00202E4908701AE0012C18D1AB
:103CA00001202C4908700020354908700120334953
:103CB00008701D4880891C49C97BCDE900101A484D
:103CC000C388027841781948FDF7B4F900202049EB
:103CD00008702C480078012819D0012D0DDB052D26
:103CE0000BDC2748007840B902D1FEF7D7F901E094
:103CF000FEF782F90120224908702846FEF7F4F801
:103D0000052D02D1FEF7DAFD01E0FEF7A7FD00BFA9
:103D100000BF1E480068301A192803D9FDF722FE9B
:103D20001A48066000BF7FE60405002000F0010885
:103D300041463A333000000041373A3030303031BC
:103D4000000000005374617274200A00100000200B
:103D5000370000200000002006000020140500208D
:103D60000700002008000020180000201900002093
:103D70001A0000201B0000201C0000201E00002054
:103D80001D0000200300002004000020140000207B
:103D90002DE9F04D1D460C4698B0174621F0004124
:103DA00023F00043002814BF4FF0010C4FF0000C2B
:103DB0000CEB440CFE4A0CEB02064FEA620C664523
:103DC0002BD33E0018BF012606EB45061644F94AE0
:103DD000964222D3F84A53EA070C02D0944205D106
:103DE00048B918B000201146BDE8F08D002808BF82
:103DF0004FF0000C01D04FF0010C0CEB440212F517
:103E0000001F0AD8002F14BF4FF0010C4FF0000C18
:103E10000CEB450212F5001F07D918B03A462B46A5
:103E20002146BDE8F04DFFF751BA0022DFF88CA320
:103E3000002CB8BF534526DADFF884C36345A8BF1A
:103E4000022220DADFF870C39C451CDCDFF874C363
:103E50000CEB235CBCF1140F08DDCCF1340627FA1F
:103E600006FC0CFA06F6BE420DD108E05FB9CCF1B3
:103E7000140623FA06FC0CFA06F69E4203D10CF057
:103E80000102C2F1020251EA000C19D1002D17DA29
:103E9000002C18BF022A01D0012A07D00220FFF708
:103EA0003DFA18B0BDE8F04DFFF708BA0220FFF761
:103EB00035FAFFF703FA18B081F00041BDE8F08D44
:103EC000B7F1000C6CD1534525D104F1804212F5B5
:103ED000801201BF00280020B74918B008BFBDE814
:103EE000F08DB548884207DC002DA1BF6046294609
:103EF00018B0BDE8F08D07E0281E05DA80F000411B
:103F000018B06046BDE8F08DAF497944D1E90001B1
:103F100018B0BDE8F08DDFF8A0C2634525D1002DB3
:103F20001FDA19B1514512D1D8B909E0002840F083
:103F3000EC82A24A214618B062F31E01BDE8F08D62
:103F40000020214618B060F31E01BDE8F08D08DAAC
:103F500018B02346BDE8F04D024600206146FCF74C
:103F600029BA18B02146BDE8F08D514518DAB5F1EF
:103F7000804F0DD0A5F1005CBCF1FF5C10D1B4F115
:103F8000000C0DDB18B06146BDE8F04D00F06BBCD5
:103F9000234618B00246BDE8F04D1946FCF798B923
:103FA000060024F0004C3BD1D9B1514533D1002C4F
:103FB00006DD002DA1BF0020514618B0BDE8F08DF0
:103FC000002C01DD002D1BDB002C13DA002D11DB92
:103FD000012A4FF0000014BF78497C4918B0BDE8B1
:103FE000F08D022A18BF002C0AD0012A08D1002C1B
:103FF00006DA0AE0002CB8BF002D11DA012A04D03D
:10400000002018B00146BDE8F08D18B000204FF038
:104010000041BDE8F08DA1F14050B0F17F601AD0B1
:10402000012000EBE47050EA020421D0624C521EE1
:104030004FF0000B104304BF4FF0000B644C654879
:1040400083427CDD644A654893421FDD884217DB6A
:10405000002D25DB37E0002C00DA4AB1022A0CBF24
:1040600001204FF0FF3018B0BDE8F04DFCF7DCBB8D
:104070000120FFF753F918B0BDE8F04DFFF728B95C
:104080004D4A8A4202DC002D0ADC1CE0814202DA41
:10409000002D18DA04E0484B994220DD002D12DD96
:1040A0000220FFF73BF9FFF719F905460E460022FB
:1040B000534658462146FCF70BF918B066F31E012B
:1040C0002846BDE8F08D0220FFF728F9FFF70EF92A
:1040D0000A46214618B062F31E01BDE8F08D0022A9
:1040E00030466146FCF783FB80460E466FF00102C6
:1040F000FCF783FB4FF05532394BFCF77BFB424614
:104100003346FCF7E5F80022364BFCF773FB82469A
:1041100042463346049110461946FCF7D9F85246F8
:10412000049BFCF7D5F88A4600904FF0C0422E4B16
:1041300040463146FCF7CCF82C4A2B4B00E027E0F8
:10414000CDE9060151460098FCF7C2F8824601917C
:10415000274A284B40463146FCF7BAF85246019BA5
:10416000FCF745FB82460B4602460591DDE9060158
:10417000FCF79CFADDE90623002688463046FCF76A
:1041800036FB5246059BFCF735FB024600F07EB934
:104190000020B1F5801F07DA352230466146FCF772
:1041A0002CFB06466FF0340000EB215024E00000A9
:1041B000FFFF1F00FFFF0F000000F03F0000F07F37
:1041C0000000404301FCFFFFE22C00000000F0FF74
:1041D0000000F0BF0000E0410000F043FFFFEF3FB0
:1041E0005555D53F0000E03F4715F73FFE822B6550
:1041F00044DF5DF80BAE543EA0F2FF300190C1F3F6
:10420000130040F07F6141F040510291FE49884225
:10421000D8BF002004DDFD498142C8BF012001DD77
:104220000D9008E000200D900198401C019002982C
:10423000A0F5801002900299F54878440B910D99F1
:1042400000EBC100D0E900230F9330460A920B998E
:10425000FCF7CDFACDE90601DDE90A2130460F9BD6
:10426000FCF724FA02460B460020EA49FCF7A2F8C4
:10427000059102460B460090DDE90601FCF728F89F
:104280001490E5488A464FF0000878440299006887
:1042900012904FF0005040EA61010D980F9B01EB26
:1042A000804000F5002109910A9A1298FCF79FFAC4
:1042B00032460B9BFCF79EFA42465346FCF708F841
:1042C0000646029140465146099B129AFCF700F8B7
:1042D000DDE90623FCF78EFA3246029BFCF787FAEB
:1042E000059B009AFBF7F4FF0091149A0490534643
:1042F00010461946FBF7ECFF06460246C7480B4638
:10430000029106217844FEF783FFCDE90510029B58
:10431000324610461946FBF7DBFFDDE90532FBF7B5
:10432000D7FF05910646534640461946149AFCF7B6
:10433000BDF9009B049AFBF7CBFF3246059BFCF7C7
:10434000B5F9CDE905104246534610461946FBF72C
:10435000BFFF0022B24B02910A90FCF7A7F9DDE9FA
:104360000532FCF7A3F90E464246AD4B4046FCF73A
:104370003EFA029B0A9AFCF73AFADDE90532FCF7AD
:1043800039FA424602910A90334610465146FBF7ED
:104390009FFFCDE906015346149A02990A98FBF74C
:1043A00097FF8A4602903346424600990498FBF7ED
:1043B0008FFF5346029AFCF779F982460B46024674
:1043C0000591DDE90601FCF771F9DDE9062300201E
:1043D00088460646FCF70BFA5246059BFCF70AFA9C
:1043E000824609914FF060428E4B30464146FBF7C2
:1043F0006FFF049006918C4A8A4B50460999FBF74F
:1044000067FF82460291894A894B30464146FBF755
:104410005FFF5246029BFCF749F9864B7B440D9A9D
:1044200003EBC203D3E90023FCF740F90E90079198
:104430000198FCF7F9F90591DDE9061382460E9A19
:104440000498FCF733F97C4A7A440D9B02EBC303D2
:10445000D3E9002300930292FCF728F95246059B0A
:10446000FCF724F90026884652463046059BFCF7A7
:10447000BEF9009B029AFCF7BAF9069B049AFCF776
:10448000B6F9079B0E9AFCF7B5F9024600200B46D9
:10449000029038462946FBF71BFF824601912B46C6
:1044A00038461946029AFCF7A2F932464346FBF712
:1044B0000FFF5246019BFCF7F9F807468A46324641
:1044C000434629460298FBF703FF05460E463A4647
:1044D0005346FCF7EBF8594A8846914221DBA8EB9A
:1044E000020353EA000210D12A463346FCF77FF953
:1044F000CDE90401524A534B38465146FCF7D6F8F1
:10450000DDE90423FCF7A2F921D20220FEF706FF21
:10451000FEF7E4FE0A46214618B062F31E01BDE82C
:10452000F08D494B28F000429A4210D3474A08EBDD
:10453000020353EA00027FF4C6AD2A463346FCF775
:1045400056F93A465346FCF781F97FF6BCAD002296
:10455000019228F000403E493E4A01EB2051824240
:1045600023DA481C4FF4801121FA00F040443A4A03
:10457000C0F30A517A44394BA1F2FF31CB4020EA13
:104580000303C0F3130040F48010C1F11401C840CC
:1045900012680190B8F1000FBCBF4042019028465C
:1045A0003146FCF724F905460E462A46334638467E
:1045B0005146FCF77BF84FF000084246284B404636
:1045C0000591FBF785FECDE90601264A264B4046BC
:1045D0000599FBF77DFE009102902A46334640463E
:1045E0000599FCF704F93A465346FCF703F91F4ACC
:1045F0001F4BFBF76DFE009B029AFCF757F807462E
:10460000884602460B4635E08E9803007AB60B00CA
:104610002A2900000000F03F6229000090280000D5
:104620000000084009C7EE3FFD033ADCF5015B14CA
:10463000E02F3EBE682700002C27000000009040BD
:10464000FE822B654715973C00CC904000346F3FAD
:1046500001FCFFFF0000E03F78260000FFFF0F0095
:10466000432EE63F396CA80C615C20BEEF39FAFEA0
:10467000422EE63FDDE90601FCF718F8DDE90623E6
:1046800005460E46FCF7B3F83A464346FCF7B2F847
:104690000F462A463346009010461946FBF718FE8F
:1046A000824602462E4888460B4605217844FEF78E
:1046B000AFFD52464346FBF70BFE2A463346FCF756
:1046C00099F880468A463B4628463146009AFBF7D1
:1046D000FFFD3B46009AFBF7E9FF069100900022A0
:1046E0004FF0804340465146FCF781F80F460C904E
:1046F0004246534628463146FBF7EAFD3B460C9AB4
:10470000FBF758FE069B009AFCF771F82A463346E1
:10471000FCF76DF80022134BFCF76CF80546019886
:104720000E4601EB00510815002810DC28463146E2
:10473000019AFCF762F8FEF757FD042808BFFEF760
:10474000D5FD28463146019AFCF757F805460B4639
:1047500018B02A4658462146BDE8F04DFBF7B8BDD3
:10476000182500000000F03F00B5024612B94FF0D6
:10477000FF3000BD50689168884201D10020F8E701
:1047800050689168884203D290685168401AF0E7F7
:10479000104600F014F851689368C91A401AE8E707
:1047A00030B5044614B94FF0FF3030BD204600F05C
:1047B00006F805462046FFF7D7FF281AF5E7014619
:1047C00011B94FF0FF3070470868FCE72DE9F04160
:1047D00004460F461546002604B11FB94FF0FF30BE
:1047E000BDE8F0812046FFF7DBFFA84202D86FF05A
:1047F0000100F5E76068A16888422AD82046FFF7E3
:10480000DEFFA168E268891A461AB54213D8A0688B
:104810002A463946FBF782FCA0682844A06020465F
:10482000FFF7CDFFE1680844A168884201D1E06844
:10483000A0602846D4E7A06832463946FBF76EFCF4
:10484000E068A060AA1BB9192046FFF7BFFF3044FB
:10485000C6E7A0682A463946FBF760FCA0682844F2
:10486000A0602846BCE72DE9F04106460F46FCF75C
:1048700048F8041E0D4618BF0120284320F00040D0
:10488000C0F17F6000F1E040C00F0ED0301C18BFB7
:104890000120384320F00040C0F17F6000F1E0408B
:1048A000C00F04BF0120FEF739FD20462946BDE8B0
:1048B000F0810000000000000000002F0000000058
:1048C0000700070000147F147F1400242A7F2A1297
:1048D0000062640813230036495522500000050386
:1048E000000000001C224100000041221C000014B6
:1048F000083E08140008083E0808000000A06000F8
:104900000008080808080000606000000020100887
:104910000402003E5149453E0000427F40000042F3
:1049200061514946002141454B31001814127F1056
:10493000002745454539003C4A4949300001710985
:10494000050300364949493600064949291E000039
:1049500036360000000056360000000814224100E0
:104960000014141414140000412214080002015110
:10497000090600324959513E007C1211127C007F19
:1049800049494936003E41414122007F4141221CB4
:10499000007F49494941007F09090901003E414919
:1049A000497A007F0808087F0000417F410000200D
:1049B00040413F01007F08142241007F40404040B9
:1049C000007F020C027F007F0408107F003E4141FF
:1049D000413E007F09090906003E4151215E007FEA
:1049E000091929460046494949310001017F010161
:1049F000003F4040403F001F2040201F003F403804
:104A0000403F006314081463000708700807006142
:104A10005149454300007F41410000552A552A5520
:104A2000000041417F0000040201020400404040B8
:104A30004040000001020400002054545478007FDC
:104A40004844443800384444442000384444487FB3
:104A500000385454541800087E0901020018A4A418
:104A6000A47C007F080404780000447D40000040DE
:104A700080847D00007F102844000000417F4000BA
:104A8000007C04180478007C08040478003844444E
:104A9000443800FC242424180018242418FC007C2A
:104AA0000804040800485454542000043F444020A3
:104AB000003C4040207C001C2040201C003C40303A
:104AC000403C004428102844001CA0A0A07C0044C6
:104AD00064544C4414141414141400000000000016
:104AE0000000000000000000FC00000000000200C8
:104AF0000000000C020C020000000000000090D03A
:104B0000BCD0BC900003000300001824FE448C00BD
:104B10000302070201001824D8B04C8000030001F2
:104B20000201C038E438E000010202010202080676
:104B300000000000000000000000000000F8040277
:104B4000000000010204000204F800000004020159
:104B500000009060F860900000000100000020203C
:104B6000FC20200000000100000000000000000008
:104B70000806000000002020202020000000000087
:104B800000000000000000000002000000000080A3
:104B9000601C0200040300000000F8040404F80094
:104BA0000102020201000008FC00000000020302F2
:104BB00000001884442418000302020202000804C2
:104BC0002424D80001020202010040B088FC8000C9
:104BD0000000000302003C242424C400010202025D
:104BE0000100F824242CC0000102020201000C0480
:104BF000E41C0400000003000000D8242424D80092
:104C000001020202010038444444F8000003020299
:104C10000100000010000000000002000000000081
:104C20002000000000000600000000205088040260
:104C300000000000010290909090900000000000A1
:104C40000000000204885020000201000000180447
:104C5000C4241800000002000000F804E494F800E6
:104C600001020202020000E09CF08000020300004A
:104C7000030204FC2424D800020302020100F80409
:104C800004040C0001020202010004FC0404F80008
:104C900002030202010004FC24740C00020302025D
:104CA000030004FC24740C00020302000000F0085E
:104CB0000444CC4000010202010004FC2020FC045A
:104CC0000203000003020404FC04040002020302C5
:104CD0000200000404FC040406040403000004FCB5
:104CE00024D00C0402030200030204FC04000000B0
:104CF000020302020203FC3CC03CFC000300030070
:104D0000030004FC30C4FC04020302000300F804A6
:104D10000404F80001020202010004FC242418002B
:104D2000020302000000F8848404F8000102020774
:104D3000050004FC24649800020302000302182406
:104D400024448C000302020201000C04FC040C0049
:104D500000020302000004FC0000FC040001020247
:104D60000100047C80E01C040000030000001CE043
:104D70003CE01C00000300030000049C609C040055
:104D8000020300030200041CE01C040000020302F2
:104D900000000C84641C04000203020203000000F3
:104DA000FE020200000007040400000E30C00000F4
:104DB000000000010200000202FE000000040407DF
:104DC00000000004020400000000000000000000D9
:104DD00000000000080808080808000002000000A1
:104DE0000000000000000040A0A0C000000102027E
:104DF000030204FC2020C00000030202010000C0E6
:104E00002020600000010202020000C02024FC00FB
:104E100000010202030200C0A0A0C00000010202C3
:104E200002000020F82424040002030202000040D3
:104E3000A0A0602000070A0A0A0404FC2020C00089
:104E40000203020003020020E4000000000203024B
:104E50000000000020E4000008080807000004FC2F
:104E600080E020200203020003020404FC00000092
:104E7000020203020200E020E020C0000300030061
:104E8000030020E02020C00002030200030200C053
:104E90002020C00000010202010020E02020C0000C
:104EA000080F0A02010000C02020E0000001020AF1
:104EB0000F0820E0402020000203020000000060F4
:104EC000A0A020000002020203000020F820000041
:104ED00000000102020020E00020E00000010202C8
:104EE000030220E0208060200000030100006080B9
:104EF000E08060000003000300002060806020006C
:104F000002030003020020E020806020080807015F
:104F100000000020A0602000000203020200000048
:104F200020DE0200000000070400000000FF000077
:104F30000000000F00000002DE2000000004070057
:104F40000000020102040402000000000000000052
:104F50000000000000000000000000000000000051
:104F600000F80000000000000033300000000010D6
:104F70000C06100C0600000000000000000040C0FD
:104F80007840C0784000043F04043F0404000070EF
:104F900088FC08300000001820FF211E0000F008E7
:104FA000F000E018000000211C031E211E0000F08C
:104FB0000888700000001E212324192721101016D4
:104FC0000E000000000000000000000000000000D3
:104FD00000E0180402000000000718204000000252
:104FE0000418E000000000402018070000004040C6
:104FF00080F0804040000202010F01020200000028
:1050000000F0000000000101011F0101010000008B
:1050100000000000000080B07000000000000000F0
:105020000000000000000001010101010101000079
:105030000000000000000030300000000000000010
:10504000000080601804006018060100000000E005
:1050500010080810E000000F102020100F000010B2
:1050600010F8000000000020203F20200000007009
:105070000808088870000030282422213000003001
:105080000888884830000018202020110E000000F9
:10509000C02010F8000000070424243F240000F87A
:1050A0000888880808000019212020110E0000E05F
:1050B000108888180000000F112020110E00003801
:1050C0000808C83808000000003F00000000007019
:1050D000880808887000001C222121221C0000E0A2
:1050E00010080810E0000000312222110F0000001B
:1050F00000C0C000000000000030300000000000D0
:10510000008000000000000080600000000000003F
:1051100080402010080000010204081020004040D8
:10512000404040404000040404040404040000081B
:1051300010204080000000201008040201000070D0
:1051400048080808F0000000003036010000C030B8
:10515000C828E810E0000718272423140B000000DB
:10516000C038E0000000203C23020227382008F865
:10517000888888700000203F202020110E00C03059
:10518000080808083800071820202010080008F830
:1051900008080810E000203F202020100F0008F829
:1051A0008888E8081000203F20202320180008F8F5
:1051B0008888E8081000203F200003000000C0306D
:1051C00008080838000007182020221E020008F8EE
:1051D00008000008F808203F210101213F200008B5
:1051E00008F8080800000020203F202000000000F0
:1051F0000808F8080800C08080807F00000008F8D8
:1052000088C028180800203F20012638200008F810
:10521000080000000000203F20202020300008F877
:10522000F800F8F80800203F003F003F200008F891
:1052300030C00008F808203F200007183F00E010A9
:1052400008080810E0000F10202020100F0008F8B8
:1052500008080808F000203F210101010000E010CB
:1052600008080810E0000F18242438504F0008F8F0
:10527000888888887000203F2000030C3020007050
:105280008808080838000038202121221C0018084E
:1052900008F8080818000000203F2000000008F867
:1052A00008000008F808001F202020201F000878B0
:1052B000880000C83808000007380E010000F80810
:1052C00000F80008F800033C0700073C030008183A
:1052D00068808068180820302C03032C30200838A0
:1052E000C800C83808000000203F20000000100857
:1052F0000808C8380800203826212020180000009F
:1053000000FE020202000000007F40404000000C4E
:1053100030C000000000000000010638C00000029C
:105320000202FE000000004040407F00000000003C
:10533000040202020400000000000000000000005F
:10534000000000000000808080808080808000025B
:105350000204000000000000000000000000000047
:105360008080808000000019242222223F2008F83B
:10537000008080000000003F112020110E0000007E
:10538000008080800000000E11202020110000000D
:1053900000808088F800000E112020103F200000BF
:1053A000808080800000001F2222222213000080C3
:1053B00080F0888888180020203F2020000000000E
:1053C000808080808000006B94949493600008F843
:1053D000008080800000203F210000203F200080CE
:1053E0009898000000000020203F202000000000CE
:1053F00000809898000000C08080807F000008F83E
:10540000000080808000203F24022D302000000812
:1054100008F8000000000020203F202000008080CD
:10542000808080808000203F20003F20003F8080DF
:10543000008080800000203F210000203F200000ED
:10544000808080800000001F202020201F0080809E
:1054500000808000000080FFA12020110E000000CD
:10546000008080808000000E112020A0FF808080BE
:1054700080008080800020203F212000010000006B
:105480008080808080000033242424241900008040
:1054900080E0808000000000001F2020000080804D
:1054A000000000808000001F202020103F2080800E
:1054B00080000080808000010E300806010080809E
:1054C0000080008080800F300C030C300F000080C3
:1054D0008000808080000020312E0E3120008080EE
:1054E00080000080808080818E701806010000801E
:1054F0008080808080000021302C2221300000003C
:105500000000807C020200000000003F40400000DC
:105510000000FF00000000000000FF00000000028B
:10552000027C800000000040403F000000000006B8
:10553000010102020404000000000000000000005D
:10554000000000000000000000000000000000005B
:10555000000000000000000000000000000000004B
:1055600000000000000000F0F0F00000000000006B
:10557000000000017F010000000000000000001C8E
:105580001C1C0000000000008060301C8C60301C7F
:105590000C000000000000000000000000000000FF
:1055A00000000000000000000000000000E000001B
:1055B000000000E000000086E69F86868686E69F63
:1055C000860000011F01010101011F01010000000F
:1055D00080C06020F820E0C00000000003070C1825
:1055E000FF70E18100000000070F10107F100F070F
:1055F00000008060206080000000E02000000F308C
:1056000020309F70DC371030C0000000100E030007
:105610000718101807000000C02020E0C00000009C
:10562000000080E01F38E88703C43C040000070F37
:105630001810100B070D1010080000808C4C38005B
:10564000000000000000000000000000000000005A
:10565000000000000000000000000000000000004A
:105660000000000080E0300804000000000000FEA0
:10567000FF0100000000000000000000030F1820E0
:10568000400000040830E08000000000000000003E
:10569000000001FFFE0000000000004020180F0382
:1056A000000000000000000000000000C00000003A
:1056B0000000004266663C18FF183C666642000027
:1056C00000000000030000000000000000000000D7
:1056D000800000000000001010101010FF101010CB
:1056E0001010000000000000030000000000000097
:1056F00000000000000000000000000000000000AA
:1057000000000000000000808C4C38000000000009
:105710000000000000000000000000000000001079
:1057200010101010101010101000000000000000E9
:105730000000000000000000000000000000000069
:105740000000000000000000000000000000000059
:105750001C1C1C00000000000000000000000000F5
:105760000000E0380C000000000080701C03000006
:1057700000000060380E0100000000000000000082
:1057800080C060202060C080000000FEFF0100009B
:10579000000001FFFE000001070E181010180E0790
:1057A00001000000808080C0E000000000000000D8
:1057B000000000FFFF000000000000001010101F9C
:1057C0001F10101000000080402020202060C080AA
:1057D000000000030300804020381F070000001C69
:1057E0001A1918181818181F00000080C02020204F
:1057F00060C080000000000303001010182FE78035
:10580000000000070F10101010180F070000000014
:1058100000000000C0E0F000000000C0B0888681F9
:1058200080FFFF808000000000000010101F1F108C
:1058300010000000E06060606060606000000000D8
:105840003F1008080818F0E0000000070B101010C7
:10585000101C0F030000000080C040202020E0C08A
:10586000000000FCFF211008080818F0E00000010B
:10587000070C18101010080F03000000C0E0606053
:10588000606060E06000000003000000E0180700B6
:10589000000000000000001F1F000000000000804A
:1058A000C0602020202060C080000087EF2C1818E6
:1058B000303068CF830000070F0810101010180F49
:1058C00007000000C0C020202020C0800000001F72
:1058D0003F604040402010FFFE0000000C1C1010F4
:1058E00010080F030000000000000000000000008E
:1058F000000000000000000E0E0E0000000000007E
:105900000000001C1C1C0000000000000000000043
:1059100000000000000000000000000C0C0000006F
:1059200000000000000000583800000000000000E7
:105930000000000000804020100000001028448279
:105940000100000000000000000000000102040847
:1059500010000000000000000000000000000084B3
:105960008484848484848484840000000000000093
:105970000000000000000000102040800000000037
:105980000000000000000000018244281000000018
:105990001008040201000000000000C020201010C8
:1059A000101030E0C0000003030000F010080C07E6
:1059B0000300000000001C1C1C0000000000000090
:1059C00000C0406020202040C00000FCFF01F00E1D
:1059D00003C1FE03807F0001070E08111110110999
:1059E00004020000000080E0E00000000000000071
:1059F000807C4340477FF880000010181F10000093
:105A00000000131F1C1020E0E02020202060C08038
:105A1000000000FFFF10101010182FE78000101F6B
:105A20001F1010101010180F0700000080C0402039
:105A300020202060E00000FCFF01000000000000CA
:105A400001000001070E181010100804030020E0E8
:105A5000E02020202040C080000000FFFF00000068
:105A6000000001FFFE00101F1F10101018080E0785
:105A7000010020E0E020202020202060800000FFA6
:105A8000FF101010107C00000000101F1F101010DD
:105A900010101018060020E0E02020202020606078
:105AA000800000FFFF101010107C00000100101F8C
:105AB0001F100000000000000000000080C06020F7
:105AC000202040E0000000FCFF0100004040C0C179
:105AD00040400001070E181010100F0F000020E0CA
